:020000040800F2
:1000000020140020E93F00084D0400084F040008B8
:1000100053040008570400085B04000800000000B7
:100020000000000000000000000000005F04000865
:100030006104000800000000630400086504000873
:1000400003400008213C000803400008034000086A
:1000500003400008034000081D3D0008034000085D
:100060000340000803400008034000080340000864
:100070000340000803400008034000080340000854
:100080000340000803400008034000080340000844
:100090000340000803400008034000080340000834
:1000A0000340000803400008034000080340000824
:1000B0000340000803400008034000080340000814
:1000C0000340000803400008034000080340000804
:1000D000034000085D3F000803400008034000089B
:1000E00003400008034000080340000803400008E4
:1000F00003400008034000080340000803400008D4
:1001000003400008034000080340000803400008C3
:1001100003400008034000080340000803400008B3
:1001200003400008034000080340000803400008A3
:1001300000F002F800F03FF80AA090E8000C8244BA
:100140008344AAF10107DA4501D100F034F8AFF297
:10015000090EBAE80F0013F0010F18BFFB1A43F0A5
:1001600001031847F876000018770000103A24BF02
:1001700078C878C1FAD8520724BF30C830C144BF0C
:1001800004680C607047000000230024002500264E
:10019000103A28BF78C1FBD8520728BF30C148BFEA
:1001A0000B607047642905F09782002070471FB5E7
:1001B0001FBD10B510BD05F057FB1146FFF7F7FF47
:1001C00000F008F805F075FB03B4FFF7F2FF03BC7D
:1001D00003F06AFE1CB54FF0000803F0FBFD4FF47E
:1001E000A06003F021FF4FF4E13003F06BFE00F05C
:1001F0002BFA00F01DFF00F04DFA4FF448636C4AF3
:100200006C496D4803F0A8FD4FF478406B490880B5
:100210006BA010210B46C822CDE9001032211E2010
:1002200003F091FC6AA010210B46C822CDE9001012
:1002300046211E2003F087FC68A010210B46C8222F
:10024000CDE900105A211E2003F07DFC67A010218B
:100250000B46C822CDE900106E211E2003F073FC6E
:1002600065A010210B46C822CDE9001082211E2076
:1002700003F069FC002700250E26314661A005F039
:10028000EBF9002416E0B5420BDB27B10A20484900
:10029000085500250CE00D2045490855781CC7B2CB
:1002A00006E000275948405D41490855681CC5B221
:1002B000601C84B2B4F5486FE5DB1F203F4908801D
:1002C000002473E0002000F0FFF90546012D5DD108
:1002D0004FA010210B46C822CDE9001096211E2008
:1002E00003F031FC4FA010210B46C822CDE90010CD
:1002F000AA211E2003F027FC012280212D48001F87
:1003000004F086FE2C4803F050FD2BE04FF4005023
:1003100005F05EF920B14FF4005005F06DF922E0D0
:10032000254805F051F9814605F052FD80463F49C8
:10033000404605F06BFC81464FF07E5105F028FEEB
:1003400080463B49404605F057FD8046404605F053
:100350001FFD8146102003234A46AA2100901E203B
:1003600003F048FBD2E700BF102003236422AA2138
:1003700000901E2003F03EFB2EA010210B46C82249
:10038000CDE9001096211E2003F0DDFB601C84B235
:100390000A2003F05CFD142C08D12B48006808B932
:1003A000012000E000202849086000248AE70000BE
:1003B0003C000020043801404400024016000020A8
:1003C000576172536869702053544D3332000000F6
:1003D000444D4120544553540000000041544F4DBA
:1003E00040414C49454E54454B00000032303135B8
:1003F0002F312F31350000004B4559303A5374618D
:100400007274000025640D0A000000008E60000870
:100410005374617274205472616E73696D69742EC5
:100420002E2E2E0020202025000000000000484530
:100430000000C8425472616E73696D697420466928
:100440006E6973686564210094812142704700BF22
:10045000FEE700BFFEE700BFFEE700BFFEE7704714
:1004600070477047704700000CB500200190009065
:100470006C48006840F480306A49086000BF6948F1
:10048000006800F4003000900198401C0190009832
:1004900018B90198B0F5A06FF1D16248006800F476
:1004A000003010B10120009001E000200090009881
:1004B000012843D15C48006840F010005A490860A8
:1004C0000846006820F0030008600846006840F015
:1004D0000200086053484068524948600846406836
:1004E00048600846406840F48060486008464068BC
:1004F00020F47C1048600846406840F4E8104860EA
:100500000846006840F08070086000BF45480068F9
:1005100000F000700028F9D04248406820F0030045
:10052000404948600846406840F00200486000BF0B
:100530003C48406800F00C000828F9D10CBD10B50B
:10054000FFF792FF10BD10B53648006840F001007B
:1005500034490860084640683449084031494860D9
:1005600008460068324908402E490860084600687D
:1005700020F4802008600846406820F4FE004860AF
:100580004FF41F008860FFF7DAFF4FF00060294941
:10059000086010BD10B5002100200022214B5B68CF
:1005A00003F00C0121B1042906D0082928D107E065
:1005B000214B224C236027E01F4B204C236023E07B
:1005C000184B5B6803F47010164B5B6803F48032C1
:1005D000022303EB904022B9194B4343174C23608D
:1005E0000DE0104B5B6803F4003323B1144B43431D
:1005F000124C236003E0104B4343104C236003E094
:100600000D4B0E4C236000BF00BF064B5B68C3F36D
:1006100003130C4CE15C094B1B68CB40074C236077
:1006200010BD000000100240002002400000FFF852
:10063000FFFFF6FE08ED00E000127A000000002047
:1006400000093D000400002008B50121482004F005
:100650007BFB2020ADF8000010208DF80300032064
:100660008DF802006946094804F0B2F820210748D5
:1006700004F05BF92020ADF800006946044804F05E
:10068000A7F82021024804F050F908BD000C0140F1
:100690000018014008B50121442004F055FB1C203E
:1006A000ADF8000048208DF803006946354804F095
:1006B0008FF80120ADF8000028208DF8030069466E
:1006C000314804F085F808BD10B5044614B1012086
:1006D0002E4908702D480078002837D0102129486D
:1006E00004F009F978B10821264804F004F950B162
:1006F0000421244804F0FFF828B10121224804F025
:10070000FAF8012822D10A2003F0A1FB00201F499A
:10071000087010211B4804F0EEF808B9012010BD44
:100720000821184804F0E7F808B90220F7E7042187
:10073000144804F0E0F808B90320F0E7012112485A
:1007400004F0D9F801281BD10420E8E710210D4856
:1007500004F0D1F8012813D108210A4804F0CBF89D
:1007600001280DD10421074804F0C5F8012807D15C
:100770000121054804F0BFF810B9012003490870B1
:100780000020CCE7001801400008014014000020C0
:10079000FE4908807047FD49891C0880704708B5EC
:1007A000FA48801C00880090BDF8000008BDF74A98
:1007B0001080921C1180704710B504462046FFF748
:1007C000E7FF052003F01FFBFFF7E9FF10BDF0482E
:1007D0000089EE4908807047EC49891C0880704701
:1007E00030B5014601F01F04C1F34513CA0AE50202
:1007F00005EB43151544A8B230BD00BF011EA0F1A2
:100800000102D0B2FAD1704700B502460B46E0486B
:10081000808841F66311884247D1DD488079A8B9C4
:10082000DB480088401E801A82B2D9494889FFF708
:10083000AFFF0020FFF7AFFF0020FFF7ACFF101263
:10084000FFF7A9FFD0B2FFF7A6FF16E0D04948890D
:10085000FFF79EFF1012FFF79EFFD0B2FFF79BFF3E
:10086000CB490988491EC1F30F20FFF794FFC849FF
:100870000978491EC8B2FFF78EFFC5498889FFF77E
:1008800087FF1812FFF787FFD8B2FFF784FFC04930
:100890004988491EC1F30F20FFF77DFFBC498978C5
:1008A000491EC8B2FFF777FF3AE0B948808845F2A1
:1008B0001051884220D1B6494889FFF769FF1012CC
:1008C000FFF769FFB2494989491C88B2FFF760FF09
:1008D000D0B2FFF760FFAE498889FFF759FF1812C1
:1008E000FFF759FFAA498989491C88B2FFF750FFD1
:1008F000D8B2FFF750FF13E0A5494889FFF748FF3A
:100900001012FFF748FFD0B2FFF745FFA0498889D2
:10091000FFF73EFF1812FFF73EFFD8B2FFF73BFF8D
:1009200000BD2DE9F04105460E4699480088A842D1
:1009300003DD97484088B04202DC0020BDE8F0812A
:1009400031462846FFF760FF9148808845F21051F4
:10095000884204D14FF43850FFF71AFF02E02E20EE
:10096000FFF716FFFFF71BFF04468948808841F612
:100970006311884201D12046E0E7FFF710FF0446EB
:10098000FFF70DFF8046E7B24FF6FF7000EA07273A
:10099000E012C002B91240EA411040EAE820CDE777
:1009A00000B57B48808845F21051884204D14FF44D
:1009B0002450FFF7EDFE02E02920FFF7E9FE00BD1D
:1009C00000B57348808845F21051884204D14FF435
:1009D0002050FFF7DDFE02E02820FFF7D9FE00BD22
:1009E00070B504460023002669488079012805D1A6
:1009F0006748808841F66311884208D1644880794D
:100A0000F0B96348808841F66311884218D1082CF8
:100A100015D2DFE804F00406080A0C0E10120624B2
:100A20000DE007240BE0042409E0052407E001247D
:100A300005E0002403E0032401E0022400BF00BF1E
:100A4000082C1CD2DFE804F00406090C0F1215185C
:100A500000BF14E043F0800311E043F040030EE0D8
:100A600043F0C0030BE043F0200308E043F06003D1
:100A700005E043F0A00302E043F0E00300BF00BF45
:100A80004348808845F21051884202D14FF45856AD
:100A900000E036263E48808849F24131884205D040
:100AA0003B48808847F28971884201D143F00803AE
:100AB00019463046FFF77BFE3548808841F66311C2
:100AC00088421DD003F0200068B1314800883049C9
:100AD0004988884214DA2E48058840882C490880C5
:100AE000084645800CE02A48008829494988884200
:100AF00006DD274805884088254908800846458046
:100B00002348808845F21051884257D120494889AE
:100B1000FFF73EFE0020FFF73EFE1D494989491CB4
:100B200088B2FFF735FE0020FFF735FE18494989E6
:100B3000891C88B2FFF72CFE15490988491EC1F3AC
:100B40000F20FFF728FE12494989C91C88B2FFF718
:100B50001FFE0F490978491EC8B2FFF71CFE0C4959
:100B60008889FFF715FE0020FFF715FE08498989DF
:100B7000491C88B2FFF70CFE0020FFF70CFE044969
:100B80008989891C88B2FFF703FE03E0FE07006C29
:100B9000BC0C0020FE494988491EC1F30F20FFF715
:100BA000FAFDFB498989C91C88B2FFF7F1FDF849B4
:100BB0008978491EC8B2FFF7EEFD2DE0F449488957
:100BC000FFF7E6FD0020FFF7E6FD0020FFF7E3FD5D
:100BD000EF490988491EC1F30F20FFF7DCFDEC49FE
:100BE0000978491EC8B2FFF7D6FDE9498889FFF7A1
:100BF000CFFD0020FFF7CFFD0020FFF7CCFDE4493B
:100C00004988491EC1F30F20FFF7C5FDE0498978E7
:100C1000491EC8B2FFF7BFFD70BD30B504460D4692
:100C200029462046FFF7F0FDFFF7D1FDD94800889F
:100C3000D949088030BD10B503460C46D448808899
:100C400045F21051884220D1D1494889FFF7A0FDD3
:100C50001812FFF7A0FDCE494989491C88B2FFF759
:100C600097FDD8B2FFF797FDC9498889FFF790FD36
:100C70002012FFF790FDC6498989491C88B2FFF709
:100C800087FDE0B2FFF787FD42E0C148808841F66A
:100C90006311884228D1BE48807920B9BC480088B9
:100CA000401EC01A83B2BA494889FFF771FD181275
:100CB000FFF771FDD8B2FFF76EFD1812FFF76BFD5D
:100CC000D8B2FFF768FDB2498889FFF761FD2012AD
:100CD000FFF761FDE0B2FFF75EFD2012FFF75BFD5D
:100CE000E0B2FFF758FD13E0A9494889FFF750FD2E
:100CF0001812FFF750FDD8B2FFF74DFDA4498889BF
:100D0000FFF746FD2012FFF746FDE0B2FFF743FD77
:100D10009F480089A049891E0880881C028010BD58
:100D20002DE9F0470446BE20FFF732FD0520FFF70E
:100D300032FD204604F0F7FD07464FF06632974B30
:100D400004F004FE054604F0C1FD1FFA80F9484690
:100D5000FFF721FD0120FFF71EFDFF20FFF71BFD20
:100D60000020FFF718FD0020FFF715FDBDE8F08714
:100D700010B5044686488471002C45D1F020844982
:100D800008804FF4A07048800846808845F21051D2
:100D9000884210D14FF430507D4908814FF42850DB
:100DA00048814FF42C5088814FF4F07008804FF444
:100DB000487048801AE07648808841F6631188427E
:100DC0000DD12C20724908812B2048812A2088814E
:100DD0004FF4F07008804FF44870488006E02C20F3
:100DE0006B4908812A2048812B20888168488088A7
:100DF00045F2103188424CD14FF4A070644908800C
:100E00004FF4F070488044E04FF4A07060490880CF
:100E1000F02048800846808845F21051884210D161
:100E20004FF430505A4908814FF4285048814FF40C
:100E30002C5088814FF4487008804FF4F07048803F
:100E40001AE05348808841F6631188420DD12C2066
:100E50004F4908812A2048812B2088814FF448700F
:100E600008804FF4F070488006E02C204849088143
:100E70002A2048812B2088814548808845F21031FE
:100E8000884206D14FF4F070414908804FF4A070B9
:100E900048800020FFF7A4FD10BDF0B504460D46C4
:100EA000A018401E86B2E818401E87B238488088D5
:100EB00041F66311884231D13548807901282DD01F
:100EC00033480088801A001B84B2E818401E83B2A1
:100ED0002F494889FFF75CFC2012FFF75CFCE0B269
:100EE000FFF759FCA118491EC1F30F20FFF753FC6F
:100EF000A118491EC8B2FFF74EFC25498889FFF7A3
:100F000047FC2812FFF747FCE8B2FFF744FC181231
:100F1000FFF741FCD8B2FFF73EFC73E01C48808825
:100F200045F2105188424DD119494889FFF730FCEC
:100F30002012FFF730FC16494989491C88B2FFF797
:100F400027FCE0B2FFF727FC11494989891C88B2C8
:100F5000FFF71EFC3012FFF71EFC0D494989C91C22
:100F600088B2FFF715FCF0B2FFF715FC0849888935
:100F7000FFF70EFC2812FFF70EFC05498989491C72
:100F800088B2FFF705FCE8B2FFF705FC004907E06F
:100F9000BC0C0020160000200008006C66660440AF
:100FA0008989891C88B2FFF7F3FB3812FFF7F3FB3E
:100FB000FE498989C91C88B2FFF7EAFBF8B2FFF73E
:100FC000EAFB1FE0F9494889FFF7E2FB2012FFF72F
:100FD000E2FBE0B2FFF7DFFB3012FFF7DCFBF0B221
:100FE000FFF7D9FBF1498889FFF7D2FB2812FFF7F9
:100FF000D2FBE8B2FFF7CFFB3812FFF7CCFBF8B219
:10100000FFF7C9FBF0BD70B504460026E748058828
:101010004088454300210846FFF7F6FBFFF7D7FB62
:1010200000BF02E0E2480480761CAE42FAD370BDF5
:1010300000B59FB00121080203F079FE01214FF4B1
:10104000B47003F081FE0120ADF8780010208DF817
:101050007B0003208DF87A001EA9D64803F0B8FB68
:101060004CF23370ADF8780018208DF87B00032027
:101070008DF87A001EA9D04803F0AAFB4FF68070C5
:10108000ADF8780018208DF87B0003208DF87A00E9
:101090001EA9CA4803F09CFB41F20100ADF878009C
:1010A00018208DF87B0003208DF87A001EA9C44813
:1010B00003F08EFB01200890002009900F200A9079
:1010C00000200B900C900D900E9001900290032048
:1010D00003900020049005900690079006200F9042
:1010E0000020109011901020129000201390159065
:1010F0001490169017904FF480501890002019907B
:101100004FF480401A9000201B9008A81C9001A862
:101110001D900FA803F042F80121062003F0A6F964
:10112000322002F094FED320FFF732FBFFF737FBAB
:101130009E498880FFF733FB9C498880FFF72FFB8F
:101140009A498880084680884FF6FF7101EA00209E
:1011500096498880FFF723FB94498988084393497F
:1011600088800846808849F2413188427DD0042039
:10117000FFF70EFBFFF713FB8C498880FFF70FFB8F
:101180008A498880FFF70BFB884988800846808859
:101190004FF6FF7101EA002084498880FFF7FFFACB
:1011A000824989880843814988800846808848F2B6
:1011B0005251884203D147F289707C4988807B482C
:1011C000808847F289718842D0D0D420FFF7E0FAB6
:1011D000FFF7E5FA75498880FFF7E1FA73498880DF
:1011E000FFF7DDFA71498880084680884FF6FF7165
:1011F00001EA00206D498880FFF7D1FA6B498988A0
:1012000008436A4988800846808845F21031884240
:1012100062D055214FF47040FFF7C9FAAA214FF26E
:101220000100FFF7C4FA52214FF20200FFF7BFFAA4
:1012300008214FF20300FFF7BAFA01214FF2040030
:10124000FFF7B5FA4FF44540FFF7A2FAFFF7A7FA08
:1012500056498880084680884FF6FF7101EA0020D1
:10126000524988804CF2015000E035E0FFF790FAD7
:10127000FFF795FA4D49898808434C498880052035
:1012800002F0E5FD4948808845F21051884223D09C
:10129000A120FFF77DFAFFF782FA44498880FFF723
:1012A0007EFA42498880084680884FF6FF7101EA3D
:1012B00000203E498880FFF772FA3C49898808433C
:1012C0003A4988800846808845F26171884203D196
:1012D00041F66310354988803448808849F24131AD
:1012E00088426FD1CF20FFF753FA0020FFF753FA5F
:1012F000C120FFF750FA3020FFF74DFAED20FFF73D
:1013000047FA6420FFF747FA0320FFF744FA122058
:10131000FFF741FA8120FFF73EFAE820FFF738FA9D
:101320008520FFF738FA1020FFF735FA7A20FFF70B
:1013300032FACB20FFF72CFA3920FFF72CFA2C20B9
:10134000FFF729FA0020FFF726FA3420FFF723FAE7
:101350000220FFF720FAF720FFF71AFA2020FFF704
:101360001AFAEA20FFF714FA0020FFF714FA002017
:10137000FFF711FAC020FFF70BFA1B20FFF70BFA5B
:10138000C120FFF705FA0120FFF705FAC520FFF796
:10139000FFF93020FFF7FFF93020FFF7FCF9C720F5
:1013A000FFF7F6F9B720FFF7F6F90CE0BC0C0020C8
:1013B0000008006C000C01400014014000180140BE
:1013C00000200140B2E03620FFF7E2F94820FFF7A5
:1013D000E2F93A20FFF7DCF95520FFF7DCF9B120FC
:1013E000FFF7D6F90020FFF7D6F91A20FFF7D3F957
:1013F000B620FFF7CDF90A20FFF7CDF9A220FFF7BD
:10140000CAF9F220FFF7C4F90020FFF7C4F926203B
:10141000FFF7BEF90120FFF7BEF9E020FFF7B8F9AA
:101420000F20FFF7B8F92A20FFF7B5F92820FFF7BA
:10143000B2F90820FFF7AFF90E20FFF7ACF908204A
:10144000FFF7A9F95420FFF7A6F9A920FFF7A3F9A0
:101450004320FFF7A0F90A20FFF79DF90F20FFF7BF
:101460009AF90020FFF797F90020FFF794F9002080
:10147000FFF791F90020FFF78EF9E120FFF788F9D7
:101480000020FFF788F91520FFF785F91720FFF7EF
:1014900082F90720FFF77FF91120FFF77CF906207A
:1014A000FFF779F92B20FFF776F95620FFF773F94C
:1014B0003C20FFF770F90520FFF76DF91020FFF7CA
:1014C0006AF90F20FFF767F93F20FFF764F93F2023
:1014D000FFF761F90F20FFF75EF92B20FFF758F9AE
:1014E0000020FFF758F90020FFF755F90120FFF71A
:1014F00052F93F20FFF74FF92A20FFF749F9002062
:10150000FFF749F90020FFF746F90020FFF743F9FC
:10151000EF20FFF740F91120FFF73AF9782002F0A9
:1015200096FC2920FFF734F902F0A6B8FE4880881F
:1015300047F2897188427CD11120FFF729F9782080
:1015400002F085FC3620FFF723F90020FFF723F98E
:101550003A20FFF71DF90520FFF71DF9B220FFF72C
:1015600017F90C20FFF717F90C20FFF714F90020EA
:10157000FFF711F93320FFF70EF93320FFF70BF9CE
:10158000B720FFF705F93520FFF705F9BB20FFF776
:10159000FFF83220FFF7FFF8C020FFF7F9F80C2022
:1015A000FFF7F9F8C220FFF7F3F80120FFF7F3F88F
:1015B000C320FFF7EDF81020FFF7EDF8C420FFF788
:1015C000E7F82020FFF7E7F8C620FFF7E1F80F2043
:1015D000FFF7E1F8D020FFF7DBF8A420FFF7DBF8F6
:1015E000A120FFF7D8F8E020FFF7D2F8D020FFF7CE
:1015F000D2F80020FFF7CFF80220FFF7CCF8072041
:10160000FFF7C9F80A20FFF7C6F82820FFF7C3F84C
:101610003220FFF7C0F84420FFF7BDF84220FFF763
:10162000BAF80620FFF7B7F80E20FFF7B4F812203B
:1016300000E056E0FFF7AFF81420FFF7ACF81720F2
:10164000FFF7A9F8E120FFF7A3F8D020FFF7A3F8F0
:101650000020FFF7A0F80220FFF79DF80720FFF712
:101660009AF80A20FFF797F82820FFF794F831201E
:10167000FFF791F85420FFF78EF84720FFF78BF81B
:101680000E20FFF788F81C20FFF785F81720FFF7DA
:1016900082F81B20FFF77FF81E20FFF77CF82A2036
:1016A000FFF776F80020FFF776F80020FFF773F8D1
:1016B0000020FFF770F8EF20FFF76DF82B20FFF701
:1016C00067F80020FFF767F80020FFF764F80120B3
:1016D000FFF761F83F20FFF75EF82920FFF758F881
:1016E00022E79148808845F21031884240F07C879B
:1016F000ED20FFF74DF80120FFF74DF8FE20FFF732
:101700004AF8EE20FFF744F8DE20FFF744F82120E6
:10171000FFF741F8F120FFF73BF80120FFF73BF816
:10172000DF20FFF735F81020FFF735F8C420FFF76A
:101730002FF88F20FFF72FF8C620FFF729F8002099
:10174000FFF729F8E220FFF726F8E220FFF723F859
:10175000E220FFF720F8BF20FFF71AF8AA20FFF7D2
:101760001AF8B020FFF714F80D20FFF714F8002046
:10177000FFF711F80D20FFF70EF80020FFF70BF828
:101780001120FFF708F80020FFF705F81920FFF7F0
:1017900002F80020FEF7FFFF2120FEF7FCFF0020EB
:1017A000FEF7F9FF2D20FEF7F6FF0020FEF7F3FF0E
:1017B0003D20FEF7F0FF0020FEF7EDFF5D20FEF775
:1017C000EAFF0020FEF7E7FF5D20FEF7E4FF0020C0
:1017D000FEF7E1FFB120FEF7DBFF8020FEF7DBFF25
:1017E0000020FEF7D8FF8B20FEF7D5FF0020FEF784
:1017F000D2FF9620FEF7CFFF0020FEF7CCFFB220ED
:10180000FEF7C6FF0020FEF7C6FF0020FEF7C3FF6D
:101810000220FEF7C0FF0020FEF7BDFF0320FEF709
:10182000BAFF0020FEF7B7FFB320FEF7B1FF00209C
:10183000FEF7B1FF0020FEF7AEFF0020FEF7ABFF82
:101840000020FEF7A8FF0020FEF7A5FF0020FEF70E
:10185000A2FF0020FEF79FFF0020FEF79CFF002064
:10186000FEF799FF0020FEF796FF0020FEF793FF9A
:101870000020FEF790FF0020FEF78DFF0020FEF70E
:101880008AFF0020FEF787FF0020FEF784FF00207C
:10189000FEF781FF0020FEF77EFF0020FEF77BFFB2
:1018A0000020FEF778FF0020FEF775FF0020FEF70E
:1018B00072FF0020FEF76FFF0020FEF76CFFB420E0
:1018C000FEF766FF8B20FEF766FF0020FEF763FF42
:1018D0009620FEF760FF0020FEF75DFFA120FEF7D7
:1018E0005AFF0020FEF757FFB520FEF751FF0220F8
:1018F000FEF751FF0020FEF74EFF0320FEF74BFFDF
:101900000020FEF748FF0420FEF745FF0020FEF709
:1019100042FFB620FEF73CFF0020FEF73CFF002010
:10192000FEF739FFB72001E0BC0C0020FEF730FFC6
:101930000020FEF730FF0020FEF72DFF3F20FEF7CE
:101940002AFF0020FEF727FF5E20FEF724FF00207D
:10195000FEF721FF6420FEF71EFF0020FEF71BFFAD
:101960008C20FEF718FF0020FEF715FFAC20FEF7D5
:1019700012FF0020FEF70FFFDC20FEF70CFF002017
:10198000FEF709FF7020FEF706FF0020FEF703FFB9
:101990009020FEF700FF0020FEF7FDFEEB20FEF793
:1019A000FAFE0020FEF7F7FEDC20FEF7F4FE002032
:1019B000FEF7F1FEB820FEF7EBFE0020FEF7EBFE8F
:1019C0000020FEF7E8FE0020FEF7E5FE0020FEF70F
:1019D000E2FE0020FEF7DFFE0020FEF7DCFE002026
:1019E000FEF7D9FE0020FEF7D6FEBA20FEF7D0FEA5
:1019F0002420FEF7D0FE0020FEF7CDFE0020FEF7EB
:101A0000CAFE0020FEF7C7FEC120FEF7C1FE20205F
:101A1000FEF7C1FE0020FEF7BEFE5420FEF7BBFE1F
:101A20000020FEF7B8FEFF20FEF7B5FE0020FEF70F
:101A3000B2FEC220FEF7ACFE0A20FEF7ACFE00208C
:101A4000FEF7A9FE0420FEF7A6FE0020FEF7A3FE87
:101A5000C320FEF79DFE3C20FEF79DFE0020FEF712
:101A60009AFE3A20FEF797FE0020FEF794FE3920FA
:101A7000FEF791FE0020FEF78EFE3720FEF78BFE6C
:101A80000020FEF788FE3C20FEF785FE0020FEF7D2
:101A900082FE3620FEF77FFE0020FEF77CFE32201D
:101AA000FEF779FE0020FEF776FE2F20FEF773FE8C
:101AB0000020FEF770FE2C20FEF76DFE0020FEF7E2
:101AC0006AFE2920FEF767FE0020FEF764FE26204E
:101AD000FEF761FE0020FEF75EFE2420FEF75BFEAF
:101AE0000020FEF758FE2420FEF755FE0020FEF7EA
:101AF00052FE2320FEF74FFE0020FEF74CFE3C2056
:101B0000FEF749FE0020FEF746FE3620FEF743FEB4
:101B10000020FEF740FE3220FEF73DFE0020FEF7DB
:101B20003AFE2F20FEF737FE0020FEF734FE2C2071
:101B3000FEF731FE0020FEF72EFE2920FEF72BFED9
:101B40000020FEF728FE2620FEF725FE0020FEF7E7
:101B500022FE2420FEF71FFE0020FEF71CFE24209C
:101B6000FEF719FE0020FEF716FE2320FEF713FEF7
:101B70000020FEF710FEC420FEF70AFE6220FEF7EA
:101B80000AFE0020FEF707FE0520FEF704FE0020F7
:101B9000FEF701FE8420FEF7FEFD0020FEF7FBFDB0
:101BA000F020FEF7F8FD0020FEF7F5FD1820FEF707
:101BB000F2FD0020FEF7EFFDA420FEF7ECFD002073
:101BC000FEF7E9FD1820FEF7E6FD0020FEF7E3FD35
:101BD0005020FEF7E0FD0020FEF7DDFD0C20FEF7B3
:101BE000DAFD0020FEF7D7FD1720FEF7D4FD002018
:101BF000FEF7D1FD9520FEF7CEFD0020FEF7CBFDD0
:101C0000F320FEF7C8FD0020FEF7C5FDE620FEF735
:101C1000C2FD0020FEF7BFFDC520FEF7B9FD322052
:101C2000FEF7B9FD0020FEF7B6FD4420FEF7B3FD38
:101C30000020FEF7B0FD6520FEF7ADFD0020FEF7A9
:101C4000AAFD7620FEF7A7FD0020FEF7A4FD882060
:101C5000FEF7A1FD0020FEF79EFDC620FEF798FDD1
:101C60002020FEF798FD0020FEF795FD1720FEF7D7
:101C700092FD0020FEF78FFD0120FEF78CFD002075
:101C8000FEF789FDC720FEF783FD0020FEF783FDE8
:101C90000020FEF780FD0020FEF77DFD0020FEF70E
:101CA0007AFDC820FEF774FD0020FEF774FD0020C9
:101CB000FEF771FD0020FEF76EFD0020FEF76BFDC4
:101CC000C920FEF765FD0020FEF765FD0020FEF748
:101CD00062FD0020FEF75FFD0020FEF75CFD0020A6
:101CE000FEF759FD0020FEF756FD0020FEF753FDDC
:101CF0000020FEF750FD0020FEF74DFD0020FEF70E
:101D00004AFD0020FEF747FD0020FEF744FD0020BD
:101D1000FEF741FD0020FEF73EFD0020FEF73BFDF3
:101D20000020FEF738FDE020FEF732FD1620FEF71A
:101D300032FD0020FEF72FFD1C20FEF72CFD0020B9
:101D4000FEF729FD2120FEF726FD0020FEF723FDEA
:101D50003620FEF720FD0020FEF71DFD4620FEF791
:101D60001AFD0020FEF717FD5220FEF714FD00209B
:101D7000FEF711FD6420FEF70EFD0020FEF70BFDBF
:101D80007A20FEF708FD0020FEF705FD8B20FEF708
:101D900002FD0020FEF7FFFC9920FEF7FCFC00206E
:101DA000FEF7F9FCA820FEF7F6FC0020FEF7F3FC96
:101DB000B920FEF7F0FC0020FEF7EDFCC420FEF792
:101DC000EAFC0020FEF7E7FCCA20FEF7E4FC002056
:101DD000FEF7E1FCD220FEF7DEFC0020FEF7DBFC84
:101DE000D920FEF7D8FC0020FEF7D5FCE020FEF756
:101DF000D2FC0020FEF7CFFCF320FEF7CCFC002045
:101E0000FEF7C9FCE120FEF7C3FC1620FEF7C3FC79
:101E10000020FEF7C0FC1C20FEF7BDFC0020FEF7F2
:101E2000BAFC2220FEF7B7FC0020FEF7B4FC3620F7
:101E3000FEF7B1FC0020FEF7AEFC4520FEF7ABFC40
:101E40000020FEF7A8FC5220FEF7A5FC0020FEF7BC
:101E5000A2FC6420FEF79FFC0020FEF79CFC7A2089
:101E6000FEF799FC0020FEF796FC8B20FEF793FC12
:101E70000020FEF790FC9920FEF78DFC0020FEF775
:101E80008AFCA820FEF787FC0020FEF784FCB9201E
:101E9000FEF781FC0020FEF77EFCC420FEF77BFCF1
:101EA0000020FEF778FCCA20FEF775FC0020FEF744
:101EB00072FCD220FEF76FFC0020FEF76CFCD820ED
:101EC000FEF769FC0020FEF766FCE020FEF763FCED
:101ED0000020FEF760FCF320FEF75DFC0020FEF71B
:101EE0005AFCE220FEF754FC0520FEF754FC0020CB
:101EF000FEF751FC0B20FEF74EFC0020FEF74BFCDA
:101F00001B20FEF748FC0020FEF745FC3420FEF7BE
:101F100042FC0020FEF73FFC4420FEF73CFC002082
:101F2000FEF739FC4F20FEF736FC0020FEF733FCAD
:101F30006120FEF730FC0020FEF72DFC7920FEF733
:101F40002AFC0020FEF727FC8820FEF724FC002056
:101F5000FEF721FC9720FEF71EFC0020FEF71BFC7D
:101F6000A620FEF718FC0020FEF715FCB720FEF7B0
:101F700012FC0020FEF70FFCC220FEF70CFC002034
:101F8000FEF709FCC720FEF706FC0020FEF703FC65
:101F9000D120FEF700FC0020FEF7FDFBD620FEF767
:101FA000FAFB0020FEF7F7FBDD20FEF7F4FB002034
:101FB000FEF7F1FBF320FEF7EEFB0020FEF7EBFB54
:101FC000E320FEF7E5FB0520FEF7E5FB0020FEF72A
:101FD000E2FB0A20FEF7DFFB0020FEF7DCFB1C2003
:101FE000FEF7D9FB0020FEF7D6FB3320FEF7D3FB2C
:101FF0000020FEF7D0FB4420FEF7CDFB0020FEF7CB
:10200000CAFB5020FEF7C7FB0020FEF7C4FB62208E
:10201000FEF7C1FB0020FEF7BEFB7820FEF7BBFBFE
:102020000020FEF7B8FB8820FEF7B5FB0020FEF786
:10203000B2FB9720FEF7AFFB0020FEF7ACFBA6201B
:10204000FEF7A9FB0020FEF7A6FBB720FEF7A3FBD7
:102050000020FEF7A0FBC220FEF79DFB0020FEF74C
:102060009AFBC720FEF797FB0020FEF794FBD120D8
:10207000FEF791FB0020FEF78EFBD520FEF78BFBD1
:102080000020FEF788FBDD20FEF785FB0020FEF731
:1020900082FBF320FEF77FFB0020FEF77CFBE420B1
:1020A000FEF776FB0120FEF776FB0020FEF773FBC0
:1020B0000120FEF770FB0020FEF76DFB0220FEF70B
:1020C0006AFB0020FEF767FB2A20FEF764FB002076
:1020D000FEF761FB3C20FEF75EFB0020FEF75BFB9A
:1020E0004B20FEF758FB0020FEF755FB5D20FEF766
:1020F00052FB0020FEF74FFB7420FEF74CFB002044
:10210000FEF749FB8420FEF746FB0020FEF743FB69
:102110009320FEF740FB0020FEF73DFBA220FEF7D8
:102120003AFB0020FEF737FBB320FEF734FB00201C
:10213000FEF731FBBE20FEF72EFB0020FEF72BFB47
:10214000C420FEF728FB0020FEF725FBCD20FEF77C
:1021500022FB0020FEF71FFBD320FEF71CFB002014
:10216000FEF719FBDD20FEF716FB0020FEF713FB40
:10217000F320FEF710FB0020FEF70DFBE520FEF735
:1021800007FB0020FEF707FB0020FEF704FB002002
:10219000FEF701FB0020FEF7FEFA0220FEF7FBFA35
:1021A0000020FEF7F8FA2920FEF7F5FA0020FEF7E6
:1021B000F2FA3C20FEF7EFFA0020FEF7ECFA4B2093
:1021C000FEF7E9FA0020FEF7E6FA5D20FEF7E3FAF3
:1021D0000020FEF7E0FA7420FEF7DDFA0020FEF79B
:1021E000DAFA8420FEF7D7FA0020FEF7D4FA93201B
:1021F000FEF7D1FA0020FEF7CEFAA220FEF7CBFAC6
:102200000020FEF7C8FAB320FEF7C5FA0020FEF75B
:10221000C2FABE20FEF7BFFA0020FEF7BCFAC420C7
:10222000FEF7B9FA0020FEF7B6FACD20FEF7B3FAB2
:102230000020FEF7B0FAD320FEF7ADFA0020FEF73B
:10224000AAFADC20FEF7A7FA0020FEF7A4FAF32092
:10225000FEF7A1FA0020FEF79EFAE620FEF798FAB4
:102260001120FEF798FA0020FEF795FA3420FEF7C9
:1022700092FA0020FEF78FFA5620FEF78CFA002023
:10228000FEF789FA7620FEF786FA0020FEF783FA39
:102290007720FEF780FA0020FEF77DFA6620FEF731
:1022A0007AFA0020FEF777FA8820FEF774FA002009
:1022B000FEF771FA9920FEF76EFA0020FEF76BFA2E
:1022C000BB20FEF768FA0020FEF765FA9920FEF7BA
:1022D00062FA0020FEF75FFA6620FEF75CFA002043
:1022E000FEF759FA5520FEF756FA0020FEF753FA8A
:1022F0005520FEF750FA0020FEF74DFA4520FEF774
:102300004AFA0020FEF747FA4320FEF744FA00207D
:10231000FEF741FA4420FEF73EFA0020FEF73BFAB2
:10232000E720FEF735FA3220FEF735FA0020FEF7F7
:1023300032FA5520FEF72FFA0020FEF72CFA76200D
:10234000FEF729FA0020FEF726FA6620FEF723FAA8
:102350000020FEF720FA6720FEF71DFA0020FEF7A6
:102360001AFA6720FEF717FA0020FEF714FA872002
:10237000FEF711FA0020FEF70EFA9920FEF70BFA8D
:102380000020FEF708FABB20FEF705FA0020FEF752
:1023900002FA9920FEF7FFF90020FEF7FCF97720FA
:1023A000FEF7F9F90020FEF7F6F94420FEF7F3F9FD
:1023B0000020FEF7F0F95620FEF7EDF90020FEF7B9
:1023C000EAF92320FEF7E7F90020FEF7E4F93320CD
:1023D000FEF7E1F90020FEF7DEF94520FEF7DBF914
:1023E0000020FEF7D8F9E820FEF7D2F90020FEF72A
:1023F000D2F90020FEF7CFF99920FEF7CCF90020A2
:10240000FEF7C9F98720FEF7C6F90020FEF7C3F9E9
:102410008820FEF7C0F90020FEF7BDF97720FEF70F
:10242000BAF90020FEF7B7F96620FEF7B4F90020EC
:10243000FEF7B1F98820FEF7AEF90020FEF7ABF900
:10244000AA20FEF7A8F90020FEF7A5F9BB20FEF7A9
:10245000A2F90020FEF79FF99920FEF79CF90020D1
:10246000FEF799F96620FEF796F90020FEF793F93A
:102470005520FEF790F90020FEF78DF95520FEF764
:102480008AF90020FEF787F94420FEF784F900203E
:10249000FEF781F94420FEF77EF90020FEF77BF974
:1024A0005520FEF778F90020FEF775F9E920FEF7D0
:1024B0006FF9AA20FEF76FF90020FEF76CF90020F3
:1024C000FEF769F90020FEF766F90020FEF760F9D3
:1024D000AA20FEF760F9CF20FEF75AF90020FEF798
:1024E0005AF90020FEF757F90020FEF754F90020B2
:1024F000FEF751F90020FEF74EF90020FEF74BF9E8
:102500000020FEF748F90020FEF745F90020FEF70D
:1025100042F90020FEF73FF90020FEF73CF90020C9
:10252000FEF739F90020FEF736F90020FEF733F9FF
:102530000020FEF730F90020FEF72DF90020FEF70D
:102540002AF9F020FEF724F90020FEF724F95020A4
:10255000FEF721F90020FEF71EF90020FEF71BF917
:102560000020FEF718F9F320FEF712F90020FEF71D
:1025700012F9F920FEF70CF90620FEF70CF91020ED
:10258000FEF709F92920FEF706F90020FEF703F906
:102590003A20FEF7FDF85520FEF7FDF81120FEF772
:1025A000F7F8642001F053FC2920FEF7F1F83520FC
:1025B000FEF7EEF80020FEF7EEF85120FEF7E8F8FF
:1025C000FF20FEF7E8F85320FEF7E2F82C20FEF794
:1025D000E2F85520FEF7DCF88220FEF7DCF82C202C
:1025E000FEF7D6F801F048B8FE48808845F2105151
:1025F00088427DD155214FF47040FEF7D8F8AA21CA
:102600004FF20100FEF7D3F852214FF20200FEF71D
:10261000CEF808214FF20300FEF7C9F801214FF26E
:102620000400FEF7C4F80D214FF43040FEF7BFF868
:102630000D214BF20100FEF7BAF80D214BF202001A
:10264000FEF7B5F834214FF43640FEF7B0F83421E8
:102650004BF20160FEF7ABF834214BF20260FEF75B
:10266000A6F80D214FF43140FEF7A1F80D214BF2F1
:102670000110FEF79CF80D214BF20210FEF797F8BF
:1026800034214FF43740FEF792F834214BF20170B9
:10269000FEF78DF834214BF20270FEF788F8002126
:1026A0004FF43240FEF783F800214BF20120FEF791
:1026B0007EF800214BF20220FEF779F824214FF436
:1026C0003840FEF774F824214BF60100FEF76FF84E
:1026D00024214BF60200FEF76AF801214FF43F4037
:1026E000FEF765F80F214FF43340FEF760F800E085
:1026F000FDE30F214BF20130FEF759F80F214BF2A9
:102700000230FEF754F834214FF43940FEF74FF809
:1027100034214BF60110FEF74AF834214BF6021033
:10272000FEF745F808214FF43540FEF740F8082140
:102730004BF20150FEF73BF808214BF20250FEF736
:1027400036F803214FF44240FEF731F824214FF4CC
:102750003A40FEF72CF824214BF60120FEF727F82B
:1027600024214BF60220FEF722F800214FF43C40D2
:10277000FEF71DF878214BF60140FEF718F800210E
:102780004BF60240FEF713F800214FF43D40FEF7F0
:102790000EF878214BF60150FEF709F800214BF6B0
:1027A0000250FEF704F800214FF43E40FDF7FFFF12
:1027B00064214BF60160FDF7FAFF00214FF4514010
:1027C000FDF7F5FF33214DF20110FDF7F0FF002179
:1027D0004DF20210FDF7EBFF34214DF20310FDF72F
:1027E000E6FF00214DF20410FDF7E1FF3A214DF222
:1027F0000510FDF7DCFF00214DF20610FDF7D7FFB5
:102800004A214DF20710FDF7D2FF00214DF20810CA
:10281000FDF7CDFF5C214DF20910FDF7C8FF002147
:102820004DF20A10FDF7C3FF81214DF20B10FDF7A9
:10283000BEFF00214DF20C10FDF7B9FFA6214DF2AD
:102840000D10FDF7B4FF00214DF20E10FDF7AFFFA4
:10285000E5214DF20F10FDF7AAFF01214DF21010F6
:10286000FDF7A5FF13214DF21110FDF7A0FF012187
:102870004DF21210FDF79BFF54214DF21310FDF79E
:1028800096FF01214DF21410FDF791FF82214DF2C8
:102890001510FDF78CFF01214DF21610FDF787FF93
:1028A000CA214DF21710FDF782FF02214DF21810D8
:1028B000FDF77DFF00214DF21910FDF778FF022191
:1028C0004DF21A10FDF773FF01214DF21B10FDF7B9
:1028D0006EFF02214DF21C10FDF769FF34214DF20D
:1028E0001D10FDF764FF02214DF21E10FDF75FFF82
:1028F00067214DF21F10FDF75AFF02214DF2201003
:10290000FDF755FF84214DF22110FDF750FF022104
:102910004DF22210FDF74BFFA4214DF22310FDF7DD
:1029200046FF02214DF22410FDF741FFB7214DF281
:102930002510FDF73CFF02214DF22610FDF737FF71
:10294000CF214DF22710FDF732FF02214DF2281062
:10295000FDF72DFFDE214DF22910FDF728FF0221A2
:102960004DF22A10FDF723FFF2214DF22B10FDF757
:102970001EFF02214DF22C10FDF719FFFE214DF232
:102980002D10FDF714FF03214DF22E10FDF70FFF60
:1029900010214DF22F10FDF70AFF03214DF23010E8
:1029A000FDF705FF33214DF23110FDF700FF032144
:1029B0004DF23210FDF7FBFE6D214DF23310FDF7A5
:1029C000F6FE00214FF45240FDF7F1FE33214DF2A7
:1029D0000120FDF7ECFE00214DF20220FDF7E7FE9D
:1029E000342101E0BC0C00204DF20320FDF7DFFE96
:1029F00000214DF20420FDF7DAFE3A214DF20520C8
:102A0000FDF7D5FE00214DF20620FDF7D0FE4A214C
:102A10004DF20720FDF7CBFE00214DF20820FDF717
:102A2000C6FE5C214DF20920FDF7C1FE00214DF2EA
:102A30000A20FDF7BCFE81214DF20B20FDF7B7FE09
:102A400000214DF20C20FDF7B2FEA6214DF20D2023
:102A5000FDF7ADFE00214DF20E20FDF7A8FEE521A9
:102A60004DF20F20FDF7A3FE01214DF21020FDF7DE
:102A70009EFE13214DF21120FDF799FE01214DF22A
:102A80001220FDF794FE54214DF21320FDF78FFE26
:102A900001214DF21420FDF78AFE82214DF215200E
:102AA000FDF785FE01214DF21620FDF780FECA21BB
:102AB0004DF21720FDF77BFE02214DF21820FDF7A5
:102AC00076FE00214DF21920FDF771FE02214DF234
:102AD0001A20FDF76CFE01214DF21B20FDF767FE69
:102AE00002214DF21C20FDF762FE34214DF21D2023
:102AF000FDF75DFE02214DF21E20FDF758FE672115
:102B00004DF21F20FDF753FE02214DF22020FDF76C
:102B10004EFE84214DF22120FDF749FE02214DF2A7
:102B20002220FDF744FEA4214DF22320FDF73FFEB5
:102B300002214DF22420FDF73AFEB7214DF2252067
:102B4000FDF735FE02214DF22620FDF730FECF21A4
:102B50004DF22720FDF72BFE02214DF22820FDF734
:102B600026FEDE214DF22920FDF721FE02214DF245
:102B70002A20FDF71CFEF2214DF22B20FDF717FE57
:102B800002214DF22C20FDF712FEFE214DF22D20E8
:102B9000FDF70DFE03214DF22E20FDF708FE10215A
:102BA0004DF22F20FDF703FE03214DF23020FDF7FB
:102BB000FEFD33214DF23120FDF7F9FD03214DF2E9
:102BC0003220FDF7F4FD6D214DF23320FDF7EFFDCE
:102BD00000214FF45340FDF7EAFD33214DF201305F
:102BE000FDF7E5FD00214DF20230FDF7E0FD342157
:102BF0004DF20330FDF7DBFD00214DF20430FDF70F
:102C0000D6FD3A214DF20530FDF7D1FD00214DF200
:102C10000630FDF7CCFD4A214DF20730FDF7C7FD28
:102C200000214DF20830FDF7C2FD5C214DF2093064
:102C3000FDF7BDFD00214DF20A30FDF7B8FD812101
:102C40004DF20B30FDF7B3FD00214DF20C30FDF7D6
:102C5000AEFDA6214DF20D30FDF7A9FD00214DF28C
:102C60000E30FDF7A4FDE5214DF20F30FDF79FFD7D
:102C700001214DF21030FDF79AFD13214DF2113074
:102C8000FDF795FD01214DF21230FDF790FD542125
:102C90004DF21330FDF78BFD01214DF21430FDF79D
:102CA00086FD82214DF21530FDF781FD01214DF2A7
:102CB0001630FDF77CFDCA214DF21730FDF777FD88
:102CC00002214DF21830FDF772FD00214DF219304E
:102CD000FDF76DFD02214DF21A30FDF768FD01216F
:102CE0004DF21B30FDF763FD02214DF21C30FDF764
:102CF0005EFD34214DF21D30FDF759FD02214DF2EC
:102D00001E30FDF754FD67214DF21F30FDF74FFDDA
:102D100002214DF22030FDF74AFD84214DF2213091
:102D2000FDF745FD02214DF22230FDF740FDA421C3
:102D30004DF22330FDF73BFD02214DF22430FDF72B
:102D400036FDB7214DF22530FDF731FD02214DF260
:102D50002630FDF72CFDCF214DF22730FDF727FD62
:102D600002214DF22830FDF722FDDE214DF22930FF
:102D7000FDF71DFD02214DF22A30FDF718FDF2216D
:102D80004DF22B30FDF713FD02214DF22C30FDF7F3
:102D90000EFDFE214DF22D30FDF709FD03214DF210
:102DA0002E30FDF704FD10214DF22F30FDF7FFFC12
:102DB00003214DF23030FDF7FAFC33214DF2313072
:102DC000FDF7F5FC03214DF23230FDF7F0FC6D21EB
:102DD0004DF23330FDF7EBFC00214FF45440FDF78A
:102DE000E6FC33214DF20140FDF7E1FC00214DF2FC
:102DF0000240FDF7DCFC34214DF20340FDF7D7FC27
:102E000000214DF20440FDF7D2FC3A214DF205407D
:102E1000FDF7CDFC00214DF20640FDF7C8FC4A212C
:102E20004DF20740FDF7C3FC00214DF20840FDF7CD
:102E3000BEFC5C214DF20940FDF7B9FC00214DF2CA
:102E40000A40FDF7B4FC81214DF20B40FDF7AFFCC9
:102E500000214DF20C40FDF7AAFCA6214DF20D40D9
:102E6000FDF7A5FC00214DF20E40FDF7A0FCE52189
:102E70004DF20F40FDF79BFC01214DF21040FDF794
:102E800096FC13214DF21140FDF791FC01214DF20A
:102E90001240FDF78CFC54214DF21340FDF787FCE6
:102EA00001214DF21440FDF782FC82214DF21540C4
:102EB000FDF77DFC01214DF21640FDF778FCCA219B
:102EC0004DF21740FDF773FC02214DF21840FDF75B
:102ED0006EFC00214DF21940FDF769FC02214DF214
:102EE0001A40FDF764FC01214DF21B4000E005E3B0
:102EF000FDF75DFC02214DF21C40FDF758FC34212A
:102F00004DF21D40FDF753FC02214DF21E40FDF72E
:102F10004EFC67214DF21F40FDF749FC02214DF2A6
:102F20002040FDF744FC84214DF22140FDF73FFC99
:102F300002214DF22240FDF73AFCA4214DF223403C
:102F4000FDF735FC02214DF22440FDF730FCB7219E
:102F50004DF22540FDF72BFC02214DF22640FDF7F6
:102F600026FCCF214DF22740FDF721FC02214DF236
:102F70002840FDF71CFCDE214DF22940FDF717FC2F
:102F800002214DF22A40FDF712FCF2214DF22B40B6
:102F9000FDF70DFC02214DF22C40FDF708FCFE214F
:102FA0004DF22D40FDF703FC03214DF22E40FDF7BD
:102FB000FEFB10214DF22F40FDF7F9FB03214DF2EE
:102FC0003040FDF7F4FB33214DF23140FDF7EFFBCC
:102FD00003214DF23240FDF7EAFB6D214DF2334003
:102FE000FDF7E5FB00214FF45540FDF7E0FB3321F1
:102FF0004DF20150FDF7DBFB00214DF20250FDF7D1
:10300000D6FB34214DF20350FDF7D1FB00214DF2E8
:103010000450FDF7CCFB3A214DF20550FDF7C7FBFC
:1030200000214DF20650FDF7C2FB4A214DF2075038
:10303000FDF7BDFB00214DF20850FDF7B8FB5C2108
:103040004DF20950FDF7B3FB00214DF20A50FDF798
:10305000AEFB81214DF20B50FDF7A9FB00214DF293
:103060000C50FDF7A4FBA6214DF20D50FDF79FFB80
:1030700000214DF20E50FDF79AFBE5214DF20F5065
:10308000FDF795FB01214DF21050FDF790FB132148
:103090004DF21150FDF78BFB01214DF21250FDF75F
:1030A00086FB54214DF21350FDF781FB01214DF2B7
:1030B0001450FDF77CFB82214DF21550FDF777FB94
:1030C00001214DF21650FDF772FBCA214DF2175047
:1030D000FDF76DFB02214DF21850FDF768FB002152
:1030E0004DF21950FDF763FB02214DF21A50FDF726
:1030F0005EFB01214DF21B50FDF759FB02214DF201
:103100001C50FDF754FB34214DF21D50FDF74FFBD1
:1031100002214DF21E50FDF74AFB67214DF21F5070
:10312000FDF745FB02214DF22050FDF740FB8421C5
:103130004DF22150FDF73BFB02214DF22250FDF7ED
:1031400036FBA4214DF22350FDF731FB02214DF255
:103150002450FDF72CFBB7214DF22550FDF727FB3E
:1031600002214DF22650FDF722FBCF214DF22750D0
:10317000FDF71DFB02214DF22850FDF718FBDE2163
:103180004DF22950FDF713FB02214DF22A50FDF7B5
:103190000EFBF2214DF22B50FDF709FB02214DF2FF
:1031A0002C50FDF704FBFE214DF22D50FDF7FFFAE8
:1031B00003214DF22E50FDF7FAFA10214DF22F5057
:1031C000FDF7F5FA03214DF23050FDF7F0FA332107
:1031D0004DF23150FDF7EBFA03214DF23250FDF77D
:1031E000E6FA6D214DF23350FDF7E1FA00214FF47C
:1031F0005640FDF7DCFA33214DF20160FDF7D7FAB6
:1032000000214DF20260FDF7D2FA34214DF2036045
:10321000FDF7CDFA00214DF20460FDF7C8FA3A211E
:103220004DF20560FDF7C3FA00214DF20660FDF78F
:10323000BEFA4A214DF20760FDF7B9FA00214DF2BE
:103240000860FDF7B4FA5C214DF20960FDF7AFFAB2
:1032500000214DF20A60FDF7AAFA81214DF20B60C0
:10326000FDF7A5FA00214DF20C60FDF7A0FAA621AA
:103270004DF20D60FDF79BFA00214DF20E60FDF757
:1032800096FAE5214DF20F60FDF791FA01214DF21A
:103290001060FDF78CFA13214DF21160FDF787FAEB
:1032A00001214DF21260FDF782FA54214DF21360B4
:1032B000FDF77DFA01214DF21460FDF778FA8221C5
:1032C0004DF21560FDF773FA01214DF21660FDF71E
:1032D0006EFACA214DF21760FDF769FA02214DF22C
:1032E0001860FDF764FA00214DF21960FDF75FFAEE
:1032F00002214DF21A60FDF75AFA01214DF21B60CE
:10330000FDF755FA02214DF21C60FDF750FA342109
:103310004DF21D60FDF74BFA02214DF21E60FDF7E4
:1033200046FA67214DF21F60FDF741FA02214DF286
:103330002060FDF73CFA84214DF22160FDF737FA59
:1033400002214DF22260FDF732FAA4214DF22360F2
:10335000FDF72DFA02214DF22460FDF728FAB7217E
:103360004DF22560FDF723FA02214DF22660FDF7AC
:103370001EFACF214DF22760FDF719FA02214DF216
:103380002860FDF714FADE214DF22960FDF70FFAEF
:1033900002214DF22A60FDF70AFAF2214DF22B606C
:1033A000FDF705FA02214DF22C60FDF700FAFE212F
:1033B0004DF22D60FDF7FBF903214DF22E60FDF774
:1033C000F6F910214DF22F60FDF7F1F903214DF2CE
:1033D0003060FDF7ECF933214DF23160FDF7E7F98C
:1033E00003214DF23260FDF7E2F96D214DF23360B9
:1033F000FDF7DDF955214FF47040FDF7D8F9AA210A
:103400004FF20100FDF7D3F952214FF20200FDF710
:10341000CEF908214FF20300FDF7C9F900214FF260
:103420000400FDF7C4F9CC214FF43140FDF7BFF99A
:1034300000214BF20110FDF7BAF905214FF4364097
:10344000FDF7B5F970214FF43740FDF7B0F9702161
:103450004BF20170FDF7ABF901214FF43840FDF755
:10346000A6F903214BF60100FDF7A1F903214BF664
:103470000200FDF79CF903214BF60300FDF797F9D5
:1034800002214FF43C40FDF792F900214BF6014038
:10349000FDF78DF900214BF60240FDF788F9D021A8
:1034A0004FF44940FDF783F902214CF60110FDF776
:1034B0007EF950214CF60210FDF779F950214CF6B7
:1034C0000310FDF774F950214CF60410FDF76FF965
:1034D00000214FF45450FDF76AF955214FF468501C
:1034E000FDF765F94FF48850FDF752F9782000F0A8
:1034F0008AFC4FF42450FDF74BF9BDE0FE4880886C
:1035000041F663118842F8D1E220FDF741F91D2010
:10351000FDF741F90220FDF73EF90420FDF73BF9E4
:10352000642000F070FCE020FDF732F90120FDF787
:1035300032F90A2000F08BFCE020FDF729F9032086
:10354000FDF729F90C2000F082FC0120FDF720F99D
:103550000A2000F07CFCE620FDF71AF92F20FDF789
:103560001AF9FF20FDF717F9FF20FDF714F9B02035
:10357000FDF70EF92020FDF70EF90020FDF70BF9FD
:103580000320FDF708F940F21F30FDF704F9012090
:10359000FDF701F940F2DF10FDF7FDF80020FDF71F
:1035A000FAF8B420FDF7F4F80420FDF7F4F840F23F
:1035B0001F40FDF7F0F80020FDF7EDF82E20FDF795
:1035C000EAF80020FDF7E7F80020FDF7E4F8002016
:1035D000FDF7E1F80020FDF7DEF8B620FDF7D8F89A
:1035E0000220FDF7D8F84FF40370FDF7D4F800205F
:1035F000FDF7D1F81720FDF7CEF81520FDF7CBF831
:103600000020FDF7C8F80020FDF7C5F8F020FDF711
:10361000BFF80320FDF7BFF82920FDF7B9F8D02047
:10362000FDF7B6F80020FDF7B6F8BE20FDF7B0F8BC
:103630000520FDF7B0F8FE20FDF7ADF80120FDF7FD
:10364000AAF80020FDF7A7F80020FDF7A4F8002055
:10365000FDF7A1F8B820FDF79BF80320FDF79BF8D4
:103660000120FDF798F8BA20FDF792F80120FDF748
:1036700092F86420FDF754FB0020FDF779FB012050
:103680009E4908604FF6FF70FDF7BDFC1FB000BDFE
:103690002DE9F04F05460E4617469846DDF824A062
:1036A0004FF0000B781B401C1FFA80FB344613E0E0
:1036B00021462846FDF7A8F8FDF789F84FF00009E4
:1036C00006E08F48A0F800A009F101001FFA80F978
:1036D000D945F6DB601C84B24445E9DDBDE8F08FD6
:1036E0002DE9F84F07460D4690469946DDF828B07B
:1036F000A8EB0700401C1FFA80FAA9EB0500401C4C
:1037000080B20090002414E0281981B23846FDF7F9
:103710007BF8FDF75CF8002607E004FB0A603BF845
:10372000100077490880701C86B25645F5DB601C96
:1037300084B200988442E7DBBDE8F88F2DE9FF4FA3
:1037400084B081468A460020039002900698A0EB40
:1037500009050798A0EB0A06CDF80490CDF800A063
:10376000002D01DD012705E00DB9002702E04FF033
:10377000FF376D42002E02DD4FF0010806E016B95A
:103780004FF0000802E04FF0FF387642B54201DD0D
:103790002C4600E034464FF0000B21E0009A91B235
:1037A000019A90B2FDF739FA0398284403900298E1
:1037B000304402900398A04205DD0398001B03905B
:1037C0000198384401900298A04205DD0298001B40
:1037D00002900098404400900BF101001FFA80FB1A
:1037E000601C8345DADD08B0BDE8F08FF0B5044613
:1037F0000D4616461F462B46324629462046FFF701
:103800009DFF3B46224629462046FFF797FF3B4651
:10381000324639462046FFF791FF3B46324629465D
:103820003046FFF78BFFF0BD2DE9F04306460F460B
:103830009046002445460320A0EB48093CE07A1B53
:1038400091B2321990B2FDF7E8F93A1B91B27219B0
:1038500090B2FDF7E2F93A1991B2721990B2FDF700
:10386000DCF97A1991B2321990B2FDF7D6F97A19CA
:1038700091B2321B90B2FDF7D0F93A1991B2721B96
:1038800090B2FDF7CAF97A1B91B2321B90B2FDF7E4
:10389000C4F93A1B91B2721B90B2FDF7BEF9641CD9
:1038A000B9F1000F03DAA000801D814404E0601B21
:1038B00080000A3081446D1EAC42C0DDBDE8F0835B
:1038C0002DE9F84F80460E4617461C46B346204663
:1038D000E31704EB5373DB1021464FEAE47C04EB5F
:1038E0005C7C4FEAEC0CA4EBCC0CBCF1000F09D0D3
:1038F0004FF0010C08E00000BC0C00208081214248
:103900000008006C4FF0000C6344224604EBD27CAC
:103910004FEA6C0C03FB0CF3DBB20093A7F1200021
:10392000C7B2002556E00C2C07D107EB47009F4992
:1039300001EB800010F8059013E0102C05D19C4895
:1039400000EB071010F805900BE0182C07D107EBDF
:10395000C700984901EB800010F8059001E0BDE830
:10396000F88F4FF0000A2FE009F0800030B1924844
:10397000028831464046FDF75EF907E00A9828B90B
:103980008E48028831464046FDF755F94FEA4960B6
:103990004FEA1069701C86B289484088B04200DC4A
:1039A000DDE7A6EB0B00A0420AD15E4608F101005C
:1039B0001FFA80F882480088404500DCCFE706E027
:1039C0000AF1010000F0FF0ABAF1080FCCDB00BFDA
:1039D000681CC5B200988542A5DB00BFBFE710B5E3
:1039E0000246012000E050430B1EA1F10104E1B2A8
:1039F000F9D110BD2DE9FF4F81B0074691461E4613
:103A00000E9D4FF0000A002439E0301B401EC1B269
:103A10000A20FFF7E4FFB9FBF0F00A21B0FBF1F256
:103A200001FB1208BAF1000F16D1701EA04213DD7F
:103A3000B8F1000F0ED10020AB4605EBDB71491049
:103A400001FB0471009088B22B4620220299FFF7F7
:103A500037FF12E04FF0010A0020AB4605EBDB71A7
:103A6000491001FB0471009088B208F13001CAB21C
:103A70002B460299FFF724FF00BF601CC4B2B4427A
:103A8000C3DB05B0BDE8F08F2DE9FF4F82B00646DD
:103A900092461F46DDE90F480020019000254DE0C9
:103AA000781B401EC1B20A20FFF799FFBAFBF0F065
:103AB0000A21B0FBF1F201FB1209019850BB781EFC
:103AC000A84227DDB9F1000F22D108F0800078B1BB
:103AD00008F00100A34604EBDB71491001FB05610E
:103AE000009088B2234630220399FFF7E9FE0EE0EA
:103AF00008F00100A34604EBDB71491001FB0561EE
:103B0000009088B2234620220399FFF7D9FE13E0E4
:103B10000120019008F00100A34604EBDB7149107D
:103B200001FB0561009088B209F13001CAB2234659
:103B30000399FFF7C5FE00BF681CC5B2BD42AFDBED
:103B400006B0BDE8F08F2DE9F84704460D469046D3
:103B50009946DDE9096704F0FF0A08EB04001FFA43
:103B600080F809EB05001FFA80F916E0444502DBF6
:103B70005446A81985B24D4500DB14E000200090A2
:103B80003A78334629462046FFF79AFE304606EB40
:103B9000D07104EB61018CB27F1C38787E2802DC86
:103BA00038782028E2DA00BFBDE8F8879C6000087A
:103BB00010650008006B00081600002018000020A7
:103BC000BC0C00203EB504460121080701F0C9F8ED
:103BD000204601F0C0FB012001F0BAFB4FF4803019
:103BE000019000208DF8080010208DF809000120B8
:103BF0008DF80A0001A801F01DFB4FF4803001F0A0
:103C000090FB01208DF8000002208DF801008DF856
:103C1000020001208DF80300684600F00AFA3EBD5C
:103C200010B54FF4803001F06BFBA8B1042001F017
:103C3000CFFB38B14FF47840434908800020434916
:103C4000086005E01F204049088001203F490860C6
:103C50004FF4803001F065FB10BD1FB50121052038
:103C600001F072F80120ADF80C0028208DF80F004B
:103C700003A9374800F0ACFD0021084600F0BEFE65
:103C80000120009000208DF8040008208DF8050028
:103C900001208DF80600684601F0CCFA06208DF868
:103CA000080002208DF809008DF80A0001208DF827
:103CB0000B0002A800F0BDF91FBD10B501210807D7
:103CC00001F04FF8012001F04FFB01F06CFB10BD3B
:103CD00010B500214FF4FE7001F050F8FFF7EDFF32
:103CE00010BD10B5002400201A49086015E001211C
:103CF000174800F000FE58B1601CC4B21E2000F04E
:103D0000A6F8642C09DB002012490860012010BDD0
:103D10000120104908600020F9E7E8E710B501200C
:103D200001F0FFFAFFF7DDFF08B1FFF7D1FF10BD8B
:103D300030BF704710B50121080701F012F80121CA
:103D4000002001F015FB10BD160000209401234255
:103D500000080140948121422DE9F04107460D46BB
:103D600016461C460121084600F0E1FF384601F0E6
:103D700047FB164804801648056046601020144929
:103D800088600846C46000200861802048610020E7
:103D90008861C86108624FF48050486200208862E0
:103DA000384601F0CFFBBDE8F08110B50446002194
:103DB000204601F0F2FB05480188204601F002FC94
:103DC0000121204601F0E9FB10BD00001A0000208F
:103DD000CC0C002010B56FF0040000F074F92E48F0
:103DE00000682E49B0FBF1F02D49087008460078B4
:103DF00000EB4001C1EBC0104FF6FF7101EAC000BB
:103E00002849088010BD0146254A12784A434FF0E0
:103E1000E0235A6100229A611A46126942F00102B7
:103E20001A6100BF4FF0E022106900F001021AB1E0
:103E300000F48032002AF5D04FF0E022126922F01F
:103E400001024FF0E0231A6100229A617047014697
:103E5000144A12884A434FF0E0235A6100229A61C3
:103E60001A46126942F001021A6100BF4FF0E022C7
:103E7000106900F001021AB100F48032002AF5D076
:103E80004FF0E022126922F001024FF0E0231A61A4
:103E900000229A61704700000000002000127A00A2
:103EA0001C0000201E00002000BF704700BF4A4ACF
:103EB000128802F04002002AF9D0C2B2464B1B1D04
:103EC0001A80704710B586B00446012144F2040000
:103ED00000F03AFF4FF40070ADF8140003208DF8A5
:103EE000160018208DF8170005A93C4800F070FC5A
:103EF0004FF48060ADF8140004208DF8170005A978
:103F0000364800F065FC25208DF8000003208DF870
:103F100001008DF8020001208DF80300684600F0D2
:103F200088F801940020ADF80800ADF80A00ADF85B
:103F30000C00ADF810000C20ADF80E0001A92648C9
:103F400000F0A9FF012240F22551234801F03BF87F
:103F50000121214801F02BF806B010BD10B540F248
:103F600025511D4801F014F910B31B4801F090F8D9
:103F7000C4B21B48008800F40040C8B91848008843
:103F800000F4804060B10A2C03D00020144908805E
:103F900020E01348008840F400401149088019E0EF
:103FA0000D2C06D10E48008840F480400C49088052
:103FB00010E00B480088C0F30D000A490C54084873
:103FC0000088401C0649088008460088C72801DD93
:103FD0000020088010BD00000038014000080140AA
:103FE00024000020F80C00200948804709480047B9
:103FF000FEE7FEE7FEE7FEE7FEE7FEE7FEE7FEE799
:10400000FEE7FEE704480549054A064B70470000F5
:104010004705000831010008200E00202014002070
:10402000201000202010002031490143314A116046
:10403000704770B5002100230F22C47804B32D4CC3
:10404000246804F4E064C4F5E064210AC1F10403C7
:10405000CA40447804FA03F18478144021430901EA
:10406000254C0678A155047804F01F050124AC40C6
:1040700005786D11AD0005F1E025C5F8004109E0B6
:10408000047804F01F050124AC401C4D067876111D
:1040900045F8264070BD1A4A0A400243154B1B1FC3
:1040A0001A60704739B1134A121D12680243114B4E
:1040B0001B1D1A6006E00F4A121D126882430D4B49
:1040C0001B1D1A607047042808D14FF0E0210969D0
:1040D00041F004014FF0E022116107E04FF0E021D0
:1040E000096921F004014FF0E022116170470000DE
:1040F0000000FA050CED00E000E400E080E100E0E3
:1041000080FFFF1F30B943F2DB028100A1F1C04103
:104110000A6005E043F2D2028100A1F1C0410A60C9
:104120006FF07042411C8900A1F1C0410A6081001A
:10413000A1F1C041C1F80421704710280AD118210B
:104140004FF020421166402151664FF0FC319166DC
:10415000D16610E01821F74A116040214FF020424B
:10416000C2F884104FF0FC31F24A083211604FF06F
:104170002042C2F88C1070471820EE4920310860A8
:1041800000200906C1F8A4004FF0FC30E9492831AD
:104190000860091D0860091D08607047D0E9011218
:1041A0001143C26811430269114342691143826994
:1041B0001143C2691143026A1143426A1143826A80
:1041C0001143C26A1143026B114302689200A2F1CB
:1041D000C0421160816808290BD101688900A1F1F2
:1041E000C041096841F0400201688900A1F1C04165
:1041F0000A60416B0968426B526841EA0211426BE6
:10420000926841EA0221426B928941EA0241426B83
:10421000128A41EA0251426B127D41EA0261426B0D
:10422000926911430268521C9200A2F1C0421160CF
:10423000C16AB1F5804F1BD1816B0968826B5268EE
:1042400041EA0211826B926841EA0221826B128A72
:1042500041EA0251826B127D41EA0261826B9269EE
:10426000114302689200A2F1C042C2F8041107E0B3
:104270006FF0704201688900A1F1C041C1F80421CA
:10428000704730B5002100220023446844F0080440
:1042900085682C43C5682C4305692C43456944EA6D
:1042A0004524856944EA4531C4692468C5696D6857
:1042B00044EA0524C5692D8944EA0544C5692D7B76
:1042C00044EA0562046A2468056A6D6844EA0524C4
:1042D000056A2D8944EA0544056A2D7B44EA056395
:1042E0000468102C05D14FF020442166A266E366D5
:1042F00008E0904C21604FF02044C4F888208D4C99
:104300000C34236030BD016841F01001426841EA7D
:104310004221826841EA4231864A20321160C168F6
:104320000968C268526841EA0221C268128941EAFA
:104330000241C268127B41EA02617E4A2832116062
:10434000016909680269526841EA02210269128919
:1043500041EA02410269127B41EA0261754A2C324C
:104360001160416909684269526841EA0221426963
:10437000128941EA02414269127B41EA02614FF02F
:104380002042C2F8B0107047002101600221416054
:1043900000218160C160016141618161C16101628F
:1043A0004FF480514162490081620021C162016382
:1043B0000F21426B1160426B5160FF21426B916093
:1043C0000F21426BD160426B1161426B5161002140
:1043D000426B91610F21826B1160826B5160FF21F2
:1043E000826B91600F21826BD160826B1161826B55
:1043F00051610021826B91617047102101600021A1
:1044000041608160C160016141618161FC21C269DB
:104410001160C2695160C2699160C269D160026A6B
:104420001160026A5160026A9160026AD16070474D
:104430000021016041608160FC21C2681160C26896
:104440005160C2689160C268D160026911600269FE
:104450005160026991600269D160426911604269EC
:104460005160426991604269D160704751B18200E8
:10447000A2F1C042126842F001038200A2F1C042E0
:10448000136009E08200A2F1C04212682A4B1A4070
:104490008300A3F1C0431A60704799B1102808D176
:1044A0004FF02042126E42F004024FF020431A6691
:1044B0001DE0204A126842F004024FF02043C3F886
:1044C000802014E0102809D14FF02042126E1A4BC0
:1044D000DB1E1A404FF020431A6608E0154A1268A6
:1044E000154BDB1E1A404FF02043C3F88020704765
:1044F00048B110492031096841F004014FF02042D1
:10450000C2F8A01009E00B49203109680A4AD21EFE
:1045100011404FF02042C2F8A0107047B9B11028E6
:104520000CD14FF02042126E42F040024FF0204377
:104530001A661FE0800000A0FEFF0F00724A12689A
:1045400042F040024FF02043C3F8802012E01028D0
:1045500008D14FF02042126E6C4B1A404FF02043AE
:104560001A6607E0684A1268684B1A404FF0204309
:10457000C3F88020704701460020102903D14FF076
:104580002042506F02E0604A14321068704710B544
:10459000F2B1102807D14FF020435B6E0B434FF070
:1045A0002044636632E0B0F5807F08D1564B1B1D76
:1045B0001B680B434FF02044C4F8843026E0524B74
:1045C00024331B680B434FF02044C4F8A4301DE093
:1045D000102807D14FF020435B6E8B434FF02044EF
:1045E000636613E0B0F5807F08D1474B1B1D1B6845
:1045F0008B434FF02044C4F8843007E0424B24330F
:104600001B688B434FF02044C4F8A43010BD10B594
:10461000024600200023102A03D14FF02044636E8D
:1046200009E0B2F5807F03D1374C241D236802E0F6
:10463000354C2434236803EA01040CB1012000E066
:10464000002010BD102807D14FF02042526E8A433F
:104650004FF020435A6613E0B0F5807F08D12A4A14
:10466000121D12688A434FF02043C3F8842007E0EC
:10467000254A243212688A434FF02043C3F8A4200D
:10468000704770B502460020002300240025102A40
:1046900003D14FF02046736E09E0B2F5807F03D15D
:1046A000194E361D336802E0174E2436336803EA8C
:1046B000010403EAD10514B10DB1012000E000208E
:1046C00070BD102808D14FF02042526E22EAD1026C
:1046D0004FF020435A6615E0B0F5807F09D10A4AB1
:1046E000121D126822EAD1024FF02043C3F8842041
:1046F00008E0054A2432126822EAD1024FF0204332
:10470000C3F8A42070470000800000A0BFFF0F0086
:1047100010B50446CC48844208D10121042000F0A1
:104720002DFB0021042000F029FB46E0C74884420D
:1047300008D10121082000F021FB0021082000F011
:104740001DFB3AE0C248844208D10121102000F04C
:1047500015FB0021102000F011FB2EE0BD48844223
:1047600008D10121202000F009FB0021202000F0C9
:1047700005FB22E0B848844208D10121402000F026
:10478000FDFA0021402000F0F9FA16E0B348844217
:1047900008D10121802000F0F1FA0021802000F0F2
:1047A000EDFA0AE0AE48844207D10121801500F0FD
:1047B000E5FA0021A01500F0E1FA10BD10B50121C5
:1047C000084600F0DBFA0021012000F0D7FA10BD06
:1047D0002DE9F04102460025002600200023002498
:1047E000002791F803C00CF00F0591F803C00CF0FE
:1047F000100CBCF1000F03D091F802C04CEA050583
:1048000091F800C0BCF1000F31D0146800202BE0FB
:104810004FF0010C0CFA00F3B1F800C00CEA0306EB
:104820009E4220D183004FF00F0C0CFA03F7BC43DB
:1048300005FA03FC4CEA040491F803C0BCF1280F0C
:1048400006D14FF0010C0CFA00FCC2F814C00AE0CB
:1048500091F803C0BCF1480F05D14FF0010C0CFAE0
:1048600000FCC2F810C0401C0828D1D31460B1F875
:1048700000C0BCF1FF0F34DD546800202EE000F1D1
:10488000080C4FF0010808FA0CF3B1F800C00CEA6C
:1048900003069E4221D183004FF00F0C0CFA03F760
:1048A000BC4305FA03FC4CEA040491F803C0BCF1D4
:1048B000280F05D100F1080C08FA0CF8C2F8148092
:1048C00091F803C0BCF1480F07D100F1080C4FF07C
:1048D000010808FA0CF8C2F81080401C0828CED352
:1048E0005460BDE8F0814FF6FF71018002218170B4
:1048F0000421C17070470246002093680B400BB141
:10490000012000E0002070470146886880B27047AF
:1049100002460020D3680B400BB1012000E00020CC
:1049200070470146C86880B27047016170474161B5
:1049300070470AB1016100E041617047C160704792
:104940004FF480320A4382618161826182698269A7
:10495000704702460020434B18684FF6807318409A
:1049600040EA021008433F4B186070473E49C86157
:104970007047F0B50A46002300240021002500F00E
:104980000046B6F1004F02D1364EF16901E0354ED6
:104990007168C0F3034583B200F44016B6F5401FBA
:1049A00008D121F070612F4E766826F070662D4F89
:1049B0007E6012E000F48016B6F5801F06D1032653
:1049C00006FA05F4A14341F0706106E0460D360198
:1049D00003FA06F6B14341F0706122B1460D36018B
:1049E00003FA06F6314300F00046B6F1004F02D15B
:1049F0001C4EF16101E01B4E7160F0BD30B500222C
:104A00008B071C0F0F2303FA04F2164B08338C108C
:104A100053F824309343134C08348D1044F8253058
:104A200023468C1053F824308C07240F00FA04F42A
:104A300023430C4C08348D1044F8253030BD0A490E
:104A4000DC3108607047000000080140000C0140A4
:104A5000001001400014014000180140001C0140FA
:104A6000002001400000014000002042DF480068B3
:104A700040F00100DD49086008464068DC49084014
:104A8000DA49486008460068DA490840D7490860B2
:104A90000846006820F4802008600846406820F43A
:104AA000FE0048604FF41F0088607047CF490968D6
:104AB00021F48031CD4A11601146096821F480212A
:104AC0001160B0F5803F03D0B0F5802F0ED106E025
:104AD000C649096841F48031C44A116007E0C349FE
:104AE000096841F4A021C14A116000E000BF00BF85
:104AF000704710B501460022002300204A11012A08
:104B000002D1BA4C236806E0022A02D1B74C236ACC
:104B100001E0B64C636A01F01F02012494401C407E
:104B20000CB1012000E0002010BD38B5002000903D
:104B30000024002500BF3120FFF7DBFF0546009869
:104B4000401C00900098B0F5A06F01D0002DF2D06D
:104B50003120FFF7CEFF08B1012400E000242046F9
:104B600038BD01460020A14A106820F0F80040EA54
:104B7000C10010607047A0490860704702460020DD
:104B80009A4B586820F47C1042EA01031843974B73
:104B90005860704798490866704701460020934A5C
:104BA000506820F003000843506070478F48406809
:104BB00000F00C007047014600208C4A506820F03D
:104BC000F00008435060704701460020874A506853
:104BD00020F4E06008435060704701460020834A9B
:104BE000506820F4605040EAC1005060704729B11D
:104BF0007E4A527A02437D4B5A7204E07B4A527AD3
:104C000082437A4B5A7270477B49D83108607047AB
:104C100001460020754A506820F440400843506027
:104C200070470021714A20321170704A82F82010BA
:104C3000012802D004280AD104E001216B4A203265
:104C4000117005E00521694A2032117000E000BFB3
:104C500000BF70476949086070476449096A0143A9
:104C6000624A11627047654944390860704730B53F
:104C700000210022002400235C4D6D6805F00C012A
:104C800021B1042905D0082923D105E05C4D056038
:104C900022E05B4D05601FE0544D6D6805F4701215
:104CA000524D6D6805F48034022505EB92421CB923
:104CB000544D554305600BE04C4D6D6805F40035CF
:104CC0001DB1504D5543056002E04D4D5543056003
:104CD00002E04B4D056000BF00BF444D6D6805F01C
:104CE000F0010909484D6B5C0568DD4045603F4DAA
:104CF0006D6805F4E061090A434D6B5C4568DD4071
:104D000085603A4D6D6805F46051C90A3E4D6B5C93
:104D10004568DD40C560354D6D6805F44041890B3F
:104D20003A4D6B5CC568B5FBF3F5056130BD29B143
:104D30002E4A526902432D4B5A6104E02B4A5269B4
:104D400082432A4B5A61704729B1284A926902432B
:104D5000264B9A6104E0254A92698243234B9A616B
:104D6000704729B1214AD2690243204BDA6104E03D
:104D70001E4AD26982431D4BDA61704729B11B4A32
:104D8000D2680243194BDA6004E0184AD2688243C1
:104D9000164BDA60704729B1144A12690243134B6B
:104DA0001A6104E0114A12698243104B1A6170477C
:104DB00012494039086070470F49C86470470B4971
:104DC000C87170470948406A40F0807007494862DE
:104DD000704701460020054A92680A400AB1012046
:104DE00000E00020704701498872704700100240BF
:104DF0000000FFF8FFFFF6FE00004242800442423E
:104E000000127A0000093D00260000203600002034
:104E100010B50446FB48844209D101218803FFF7FD
:104E2000ADFF00214FF48040FFF7A8FF32E0F648C5
:104E3000844209D101214804FFF7ADFF00214FF45E
:104E40000030FFF7A8FF25E0F048844209D1012196
:104E50008804FFF7A0FF00214FF48020FFF79BFF9D
:104E600018E0EB48844209D10121C804FFF793FF01
:104E700000214FF40020FFF78EFF0BE0E54884424D
:104E800008D101210805FFF786FF00214FF48010AB
:104E9000FFF781FF10BD2DE9F04786B005460E46AD
:104EA0000024A24600BFA1460027B08900B100BF80
:104EB0002F462C8A4CF6FF700440F08804432C8265
:104EC000AC894EF6F3100440B088318908437189EB
:104ED00008430443AC81AC8A4FF6FF400440B089DC
:104EE0000443AC8201A8FFF7C2FEC648874202D144
:104EF000DDF810A001E0DDF80CA0A88900F4004066
:104F000040B10AEBCA0000EB0A1031684900B0FB5F
:104F1000F1F807E00AEBCA0000EB0A1031688900DB
:104F2000B0FBF1F86420B8FBF0F004012009642123
:104F300001FB1089A88900F4004040B1322000EB49
:104F4000C900B0FBF1F000F00700044308E0322094
:104F500000EB09106421B0FBF1F000F00F000443F6
:104F60002C8106B0BDE8F0874FF416510160002196
:104F70008180C18001810C214181002181817047A4
:104F800010B502460020108A4FF2FF0318400B882C
:104F90004C8823438C882343CC88234318431082B6
:104FA00010BD0021018041808180C180704721B106
:104FB000828942F40052828104E082894DF6FF73B7
:104FC0001A4082817047F0B5034600240026002570
:104FD000002040F66A17B94200D100BF1846C1F35D
:104FE000421401F01F06012707FA06F5012C01D132
:104FF0000C3004E0022C01D1103000E014301AB162
:1050000007682F43076002E00768AF430760F0BD01
:105010001AB1838A0B43838202E0838A8B438382A3
:105020007047028A4FF6F0731A400282028A0A43DE
:105030000282704782894FF2FF731A40828182890F
:105040000A438281704721B1828942F00202828143
:1050500004E082894FF6FD731A4082817047028A0C
:105060004FF6DF731A400282028A0A4302827047B7
:1050700021B1028A42F48042028204E0028A4BF6A5
:10508000FF731A4002827047C1F3080282807047A2
:1050900001468888C0F308007047818941F001010A
:1050A00081817047028BD2B20283028B42EA0122D5
:1050B00002837047028B02F47F420283028B0A4311
:1050C0000283704721B1828A42F02002828204E08A
:1050D000828A4FF6DF731A408282704721B1828A3A
:1050E00042F01002828204E0828A4FF6EF731A4087
:1050F0008282704721B1828A42F00802828204E0F3
:10510000828A4FF6F7731A408282704721B18289F2
:1051100042F40042828103E08289C2F30E0282815E
:10512000704721B1828A42F40062828204E0828A5E
:105130004FF2FF731A4082827047828A4FF6FB73E8
:105140001A408282828A0A438282704721B1828A0F
:1051500042F00202828204E0828A4FF6FD731A4016
:105160008282704702460020B1F5007F00D100BF67
:1051700013880B400BB1012000E00020704701F4C0
:105180000072B2F5007F00D100BFCA4302807047B1
:1051900070B50246002400230025002040F66A1660
:1051A000B14200D100BFC1F3421501F01F03012637
:1051B00006FA03F3012D02D19689334006E0022D51
:1051C00002D1168A334001E0968A33400C12012640
:1051D00006FA04F41688344013B10CB1012000E043
:1051E000002070BD10B50022002340F66A14A142D1
:1051F00000D100BF0A1201249440A3B2DC43048012
:1052000010BD00000038014000440040004800404C
:10521000004C004000500040002044490860091D37
:105220000860091D0860091D086041483F491431A4
:105230000860704700213D498279002A3AD00A4629
:10524000126803689A430B461A600A1D12680368C5
:105250009A430B1D1A60027911440A6803681A43C5
:105260000A60324A0832126803689A432F4B0833A7
:105270001A601A1D126803689A432C4B0C331A608B
:105280004279102A0ED11A1F126803681A43274B5D
:1052900008331A601A1D126803681A43234B0C3333
:1052A0001A600DE02149427911440A6803681A43E3
:1052B0000A6005E0027911440A6803689A430A60AB
:1052C00070470021016001710C2141710021817141
:1052D00070471649103109680143144A10321160B1
:1052E000704701460020114A143212680A400AB180
:1052F000012000E0002070470C491431086070471D
:10530000014600200022094B1B6803EA0102074BFB
:1053100014331B680B4013B10AB1012000E00020D8
:1053200070470249143108607047000000040140D2
:10533000FFFF0F0010B501210807FFF72CFD00212A
:105340004FF08050FFF727FD10BD2A4908627047D3
:1053500028490861704701460020274A106820F05C
:10536000E0000843106070472249A0310860704790
:1053700010B502460020204B186820F003001043AF
:1053800018601E4B1B6843F004031C4C236001296A
:1053900001D130BF00E020BF184B1B6823F004038D
:1053A000164C236010BD1448006840F004001249F8
:1053B00008600846006840F0020008600F48006876
:1053C00040F004000D49086000BF00BF30BF7047C7
:1053D00001460020084A52680A400AB1012000E054
:1053E000002070470449096841EA8001024A1160BF
:1053F0007047000000000E420070004010ED00E019
:1054000001684FF6FE7211400160002101604160A9
:105410008160C1608D49884208D18C49083949684A
:1054200041F00F01894A083A51608AE087491431F6
:10543000884208D185490839496841F0F001834A1A
:10544000083A51607DE081492831884208D17F497E
:105450000839496841F470617C4A083A516070E04B
:105460007A493C31884208D178490839496841F481
:105470007041764A083A516063E07449503188427D
:1054800008D172490839496841F470216F4A083AD5
:10549000516056E06D496431884208D16B49083942
:1054A000496841F47001694A083A516049E0674926
:1054B0007831884208D165490839496841F07061FE
:1054C000624A083A51603CE06149884206D1011FB6
:1054D000096841F00F01021F116032E05C4914318C
:1054E000884208D15A49091F096841F0F001584A19
:1054F000121F116025E056492831884208D15449CD
:10550000091F096841F47061514A121F116018E0C7
:105510004F493C31884208D14D49091F096841F47F
:1055200070414B4A121F11600BE0494950318842CB
:1055300007D14749091F096841F47021444A121FE5
:105540001160704710B50022026847F6F0739A4365
:105550000C6A8B6823430C6923434C6923438C6991
:105560002343CC6923434C6A23438C6A23431A4365
:105570000260CB6843600B6883604B68C36010BDFA
:105580000021016041608160C16001614161816110
:10559000C161016241628162704721B1026842F0DB
:1055A0000102026004E002684FF6FE731A400260D6
:1055B00070471AB103680B43036002E003688B4332
:1055C00003607047416070470146486880B2704789
:1055D00001460020002201F080531BB11C4B083B08
:1055E0001A6802E0194B083B1A6802EA01030BB182
:1055F000012000E00020704700F0805119B11449EB
:10560000091F086002E011490839486070470146E7
:105610000020002201F080531BB10D4B083B1A689B
:1056200002E00A4B083B1A6802EA01030BB10120B1
:1056300000E00020704700F0805119B10449091FB3
:10564000086002E0014908394860704708000240DC
:1056500008040240704700000FB4044910B503AAC3
:10566000029800F0D3F810BC5DF814FB2000002075
:105670002DE9F0410E460446002020622046E168F4
:10568000884730B3252805D0D4E901219047206A06
:10569000401CF2E7E168204600278847050018D043
:1056A000A5F14100192802D820354FF40067324691
:1056B000294620462760FAF775FD40B1012804D03D
:1056C000F61D26F007060836D8E7361DD6E7284629
:1056D000DAE7206ABDE8F0812DE9F04106460024B2
:1056E00010687529314616A510D0AFF30080002848
:1056F00002DA404213A507E031688A0701D512A5F6
:1057000002E0490704D511A5012401E0AFF30080B0
:1057100000210A2206F1240709E0B0FBF2FCB0FBED
:10572000F2F302FB1C00303078541846491C002864
:10573000F3D123462A463046BDE8F04100F00CB8CC
:10574000000000002D0000002B00000020000000E1
:1057500070477047704770472DE9F0470D469946EE
:105760009246044600F124080168880604D5E069E1
:1057700021F01001216000E00120A84201DD471B5B
:1057800000E00027A1697A1902EB0900081AA0615C
:105790002078C00602D42046AFF30080002608E03F
:1057A000D4E901211AF806009047206A401C761CB3
:1057B00020624E45F4DB2078C0060AD52046AFF3C0
:1057C000008006E0D4E9012130209047206A401C87
:1057D0002062381EA7F10107F4DC07E0D4E90121BB
:1057E00018F805009047206A401C2062281EA5F189
:1057F0000105F3DC2046AFF300802078000602D5D7
:105800000220BDE8F0870120FBE70000074B70B5E0
:105810000D467B4400F011F80446284600F020F8BD
:1058200010B14FF0FF3070BD204670BD97E6FFFF0E
:1058300001694A1C02610878704700B58FB0CDE954
:1058400001310021059105497944CDE90310114644
:105850006846FFF70DFF0FB000BD0000E5FFFFFF3A
:10586000007B00F080007047754600F02BF8AE46D4
:1058700005006946534620F00700854618B020B55C
:10588000FEF7C0FBBDE820404FF000064FF00007D8
:105890004FF000084FF0000B21F00701AC46ACE8D8
:1058A000C009ACE8C009ACE8C009ACE8C0098D4645
:1058B000704710B50446AFF300802046BDE81040A5
:1058C000FAF782BC00487047C00D00204FEA115320
:1058D000A3F58063D3F11E03A8BFD3F1200C08DB2E
:1058E0004FF0004242EAC12252EA505232FA03F02B
:1058F000704709420BD4102BC4BF0020704703F53A
:10590000787CBCF1FF3F05D04FF0FF3070474FF07F
:105910000000704770B500F0C3F800BF49922480C2
:1059200000207047F0E7B0FA80F310FA03F10AD0D4
:10593000C3F11D0303F580634FEA41504FEA035260
:1059400002EBD12170474FF000007047DFF848C1EB
:1059500070B51CEA111E1EBF1CEA13159EEA0C0F3F
:1059600095EA0C0F00F06F8081EA030423EA4C13E0
:105970004EEAD47E21EA4C1141F4801143F48013A5
:10598000AE44A1FB024CA0FB0365AEF17F7E36194D
:1059900055EB0C05A1FB034C4CF10003A0FB021CD2
:1059A00016EB0C06654153F10003094218BF46F09F
:1059B000010613F4007F0BD14FEA03314FEA0530A3
:1059C000340341EA155140EA16506FF003020AE031
:1059D0004FEAC3214FEAC520F40241EA555140EA9B
:1059E00056506FF0020202EB2E4201EB025585EA9F
:1059F000CE710AD05FEA440C18BF24F0004450F185
:105A0000000041F1000120EAD47040F2FE7C6245C2
:105A100000D270BDA84214BF4FF080444FF0404404
:105A2000002E08BF0024BEF1806FA8BFA1F1C041C5
:105A3000BDE8704080F282804FF0000001F1C0416B
:105A400001F0004170479EEA0C0F0CEA131518BFD5
:105A500095EA0C0F06D04FF0000081EA030E0EF01D
:105A6000004170BD00F01CF88900013E00F007B84D
:105A700000F009B84FEA430C5FEA5C5C08D081EAA9
:105A8000030100F05BB84FEA410C5FEA5C5CF6D1C1
:105A90004FF00000014970470000FF070000F87F49
:105AA0000EF1020E2EF0030E5EF8046B364205D4A2
:105AB000012A43EB030515F5001F12D8012841EB1D
:105AC000010C1CF5001F0CD80ED14FEAD17C15F546
:105AD000001F0CEB4C0C0CF1020C08BF4CEBD37C00
